{
  "_format": "hh3-artifact-1",
  "contractName": "Cryptocart",
  "sourceName": "contracts/Cryptocart.sol",
  "abi": [
    {
      "inputs": [
        {
          "internalType": "string",
          "name": "_name",
          "type": "string"
        },
        {
          "internalType": "uint256",
          "name": "_price",
          "type": "uint256"
        },
        {
          "internalType": "string",
          "name": "_imageURI",
          "type": "string"
        }
      ],
      "name": "addProduct",
      "outputs": [],
      "stateMutability": "nonpayable",
      "type": "function"
    },
    {
      "inputs": [
        {
          "internalType": "uint256",
          "name": "_id",
          "type": "uint256"
        }
      ],
      "name": "buyProduct",
      "outputs": [],
      "stateMutability": "payable",
      "type": "function"
    },
    {
      "inputs": [
        {
          "internalType": "uint256",
          "name": "_id",
          "type": "uint256"
        }
      ],
      "name": "confirmDelivery",
      "outputs": [],
      "stateMutability": "nonpayable",
      "type": "function"
    },
    {
      "inputs": [],
      "name": "productCount",
      "outputs": [
        {
          "internalType": "uint256",
          "name": "",
          "type": "uint256"
        }
      ],
      "stateMutability": "view",
      "type": "function"
    },
    {
      "inputs": [
        {
          "internalType": "uint256",
          "name": "",
          "type": "uint256"
        }
      ],
      "name": "products",
      "outputs": [
        {
          "internalType": "uint256",
          "name": "id",
          "type": "uint256"
        },
        {
          "internalType": "string",
          "name": "name",
          "type": "string"
        },
        {
          "internalType": "uint256",
          "name": "price",
          "type": "uint256"
        },
        {
          "internalType": "address payable",
          "name": "seller",
          "type": "address"
        },
        {
          "internalType": "bool",
          "name": "isDelivered",
          "type": "bool"
        },
        {
          "internalType": "string",
          "name": "imageURI",
          "type": "string"
        }
      ],
      "stateMutability": "view",
      "type": "function"
    }
  ],
  "bytecode": "0x60806040525f8055348015610012575f80fd5b5061125d806100205f395ff3fe608060405260043610610049575f3560e01c80637acc0b201461004d5780638642269e1461008e5780638f29695a146100aa578063e0f6ef87146100d2578063fd84cb97146100fc575b5f80fd5b348015610058575f80fd5b50610073600480360381019061006e919061082d565b610124565b6040516100859695949392919061094a565b60405180910390f35b6100a860048036038101906100a3919061082d565b610294565b005b3480156100b5575f80fd5b506100d060048036038101906100cb9190610ae3565b61042a565b005b3480156100dd575f80fd5b506100e661060c565b6040516100f39190610b6b565b60405180910390f35b348015610107575f80fd5b50610122600480360381019061011d919061082d565b610611565b005b6001602052805f5260405f205f91509050805f01549080600101805461014990610bb1565b80601f016020809104026020016040519081016040528092919081815260200182805461017590610bb1565b80156101c05780601f10610197576101008083540402835291602001916101c0565b820191905f5260205f20905b8154815290600101906020018083116101a357829003601f168201915b505050505090806002015490806003015f9054906101000a900473ffffffffffffffffffffffffffffffffffffffff16908060030160149054906101000a900460ff169080600401805461021390610bb1565b80601f016020809104026020016040519081016040528092919081815260200182805461023f90610bb1565b801561028a5780601f106102615761010080835404028352916020019161028a565b820191905f5260205f20905b81548152906001019060200180831161026d57829003601f168201915b5050505050905086565b5f60015f8381526020019081526020015f2090505f815f01541180156102be57505f54815f015411155b6102fd576040517f08c379a00000000000000000000000000000000000000000000000000000000081526004016102f490610c2b565b60405180910390fd5b80600201543414610343576040517f08c379a000000000000000000000000000000000000000000000000000000000815260040161033a90610c93565b60405180910390fd5b8060030160149054906101000a900460ff1615610395576040517f08c379a000000000000000000000000000000000000000000000000000000000815260040161038c90610cfb565b60405180910390fd5b806003015f9054906101000a900473ffffffffffffffffffffffffffffffffffffffff1673ffffffffffffffffffffffffffffffffffffffff163373ffffffffffffffffffffffffffffffffffffffff1603610426576040517f08c379a000000000000000000000000000000000000000000000000000000000815260040161041d90610d89565b60405180910390fd5b5050565b5f83511161046d576040517f08c379a000000000000000000000000000000000000000000000000000000000815260040161046490610df1565b60405180910390fd5b5f82116104af576040517f08c379a00000000000000000000000000000000000000000000000000000000081526004016104a690610e59565b60405180910390fd5b5f8151116104f2576040517f08c379a00000000000000000000000000000000000000000000000000000000081526004016104e990610ec1565b60405180910390fd5b5f8081548092919061050390610f0c565b91905055506040518060c001604052805f5481526020018481526020018381526020013373ffffffffffffffffffffffffffffffffffffffff1681526020015f151581526020018281525060015f805481526020019081526020015f205f820151815f0155602082015181600101908161057d91906110f0565b50604082015181600201556060820151816003015f6101000a81548173ffffffffffffffffffffffffffffffffffffffff021916908373ffffffffffffffffffffffffffffffffffffffff16021790555060808201518160030160146101000a81548160ff02191690831515021790555060a082015181600401908161060391906110f0565b50905050505050565b5f5481565b5f60015f8381526020019081526020015f2090505f815f015411801561063b57505f54815f015411155b61067a576040517f08c379a000000000000000000000000000000000000000000000000000000000815260040161067190610c2b565b60405180910390fd5b8060030160149054906101000a900460ff16156106cc576040517f08c379a00000000000000000000000000000000000000000000000000000000081526004016106c390610cfb565b60405180910390fd5b806003015f9054906101000a900473ffffffffffffffffffffffffffffffffffffffff1673ffffffffffffffffffffffffffffffffffffffff163373ffffffffffffffffffffffffffffffffffffffff160361075d576040517f08c379a000000000000000000000000000000000000000000000000000000000815260040161075490611209565b60405180910390fd5b60018160030160146101000a81548160ff021916908315150217905550806003015f9054906101000a900473ffffffffffffffffffffffffffffffffffffffff1673ffffffffffffffffffffffffffffffffffffffff166108fc826002015490811502906040515f60405180830381858888f193505050501580156107e4573d5f803e3d5ffd5b505050565b5f604051905090565b5f80fd5b5f80fd5b5f819050919050565b61080c816107fa565b8114610816575f80fd5b50565b5f8135905061082781610803565b92915050565b5f60208284031215610842576108416107f2565b5b5f61084f84828501610819565b91505092915050565b610861816107fa565b82525050565b5f81519050919050565b5f82825260208201905092915050565b5f5b8381101561089e578082015181840152602081019050610883565b5f8484015250505050565b5f601f19601f8301169050919050565b5f6108c382610867565b6108cd8185610871565b93506108dd818560208601610881565b6108e6816108a9565b840191505092915050565b5f73ffffffffffffffffffffffffffffffffffffffff82169050919050565b5f61091a826108f1565b9050919050565b61092a81610910565b82525050565b5f8115159050919050565b61094481610930565b82525050565b5f60c08201905061095d5f830189610858565b818103602083015261096f81886108b9565b905061097e6040830187610858565b61098b6060830186610921565b610998608083018561093b565b81810360a08301526109aa81846108b9565b9050979650505050505050565b5f80fd5b5f80fd5b7f4e487b71000000000000000000000000000000000000000000000000000000005f52604160045260245ffd5b6109f5826108a9565b810181811067ffffffffffffffff82111715610a1457610a136109bf565b5b80604052505050565b5f610a266107e9565b9050610a3282826109ec565b919050565b5f67ffffffffffffffff821115610a5157610a506109bf565b5b610a5a826108a9565b9050602081019050919050565b828183375f83830152505050565b5f610a87610a8284610a37565b610a1d565b905082815260208101848484011115610aa357610aa26109bb565b5b610aae848285610a67565b509392505050565b5f82601f830112610aca57610ac96109b7565b5b8135610ada848260208601610a75565b91505092915050565b5f805f60608486031215610afa57610af96107f2565b5b5f84013567ffffffffffffffff811115610b1757610b166107f6565b5b610b2386828701610ab6565b9350506020610b3486828701610819565b925050604084013567ffffffffffffffff811115610b5557610b546107f6565b5b610b6186828701610ab6565b9150509250925092565b5f602082019050610b7e5f830184610858565b92915050565b7f4e487b71000000000000000000000000000000000000000000000000000000005f52602260045260245ffd5b5f6002820490506001821680610bc857607f821691505b602082108103610bdb57610bda610b84565b5b50919050565b7f50726f6475637420646f6573206e6f74206578697374000000000000000000005f82015250565b5f610c15601683610871565b9150610c2082610be1565b602082019050919050565b5f6020820190508181035f830152610c4281610c09565b9050919050565b7f4d7573742073656e6420746865206578616374207072696365000000000000005f82015250565b5f610c7d601983610871565b9150610c8882610c49565b602082019050919050565b5f6020820190508181035f830152610caa81610c71565b9050919050565b7f50726f6475637420616c72656164792064656c697665726564000000000000005f82015250565b5f610ce5601983610871565b9150610cf082610cb1565b602082019050919050565b5f6020820190508181035f830152610d1281610cd9565b9050919050565b7f53656c6c65722063616e6e6f7420627579207468656972206f776e2070726f645f8201527f7563740000000000000000000000000000000000000000000000000000000000602082015250565b5f610d73602383610871565b9150610d7e82610d19565b604082019050919050565b5f6020820190508181035f830152610da081610d67565b9050919050565b7f50726f64756374206e616d6520697320726571756972656400000000000000005f82015250565b5f610ddb601883610871565b9150610de682610da7565b602082019050919050565b5f6020820190508181035f830152610e0881610dcf565b9050919050565b7f5072696365206d7573742062652067726561746572207468616e207a65726f005f82015250565b5f610e43601f83610871565b9150610e4e82610e0f565b602082019050919050565b5f6020820190508181035f830152610e7081610e37565b9050919050565b7f496d6167652055524920697320726571756972656400000000000000000000005f82015250565b5f610eab601583610871565b9150610eb682610e77565b602082019050919050565b5f6020820190508181035f830152610ed881610e9f565b9050919050565b7f4e487b71000000000000000000000000000000000000000000000000000000005f52601160045260245ffd5b5f610f16826107fa565b91507fffffffffffffffffffffffffffffffffffffffffffffffffffffffffffffffff8203610f4857610f47610edf565b5b600182019050919050565b5f819050815f5260205f209050919050565b5f6020601f8301049050919050565b5f82821b905092915050565b5f60088302610faf7fffffffffffffffffffffffffffffffffffffffffffffffffffffffffffffffff82610f74565b610fb98683610f74565b95508019841693508086168417925050509392505050565b5f819050919050565b5f610ff4610fef610fea846107fa565b610fd1565b6107fa565b9050919050565b5f819050919050565b61100d83610fda565b61102161101982610ffb565b848454610f80565b825550505050565b5f90565b611035611029565b611040818484611004565b505050565b5b81811015611063576110585f8261102d565b600181019050611046565b5050565b601f8211156110a85761107981610f53565b61108284610f65565b81016020851015611091578190505b6110a561109d85610f65565b830182611045565b50505b505050565b5f82821c905092915050565b5f6110c85f19846008026110ad565b1980831691505092915050565b5f6110e083836110b9565b9150826002028217905092915050565b6110f982610867565b67ffffffffffffffff811115611112576111116109bf565b5b61111c8254610bb1565b611127828285611067565b5f60209050601f831160018114611158575f8415611146578287015190505b61115085826110d5565b8655506111b7565b601f19841661116686610f53565b5f5b8281101561118d57848901518255600182019150602085019450602081019050611168565b868310156111aa57848901516111a6601f8916826110b9565b8355505b6001600288020188555050505b505050505050565b7f53656c6c65722063616e6e6f7420636f6e6669726d2064656c697665727900005f82015250565b5f6111f3601e83610871565b91506111fe826111bf565b602082019050919050565b5f6020820190508181035f830152611220816111e7565b905091905056fea2646970667358221220f7d93bc4979f8bc483ce89e39e3326248f9df7d7e2a134c70e73f7b7453731c764736f6c63430008180033",
  "linkReferences": {},
  "deployedLinkReferences": {},
  "immutableReferences": {},
  "inputSourceName": "project/contracts/Cryptocart.sol",
  "buildInfoId": "solc-0_8_24-71c59033532284d87908f23e2cb483b8eb3e5822"
}