{
  "_format": "hh3-artifact-1",
  "contractName": "Cryptocart",
  "sourceName": "contracts/Cryptocart.sol",
  "abi": [
    {
      "inputs": [
        {
          "internalType": "string",
          "name": "_name",
          "type": "string"
        },
        {
          "internalType": "uint256",
          "name": "_price",
          "type": "uint256"
        }
      ],
      "name": "addProduct",
      "outputs": [],
      "stateMutability": "nonpayable",
      "type": "function"
    },
    {
      "inputs": [
        {
          "internalType": "uint256",
          "name": "_id",
          "type": "uint256"
        }
      ],
      "name": "buyProduct",
      "outputs": [],
      "stateMutability": "payable",
      "type": "function"
    },
    {
      "inputs": [
        {
          "internalType": "uint256",
          "name": "_id",
          "type": "uint256"
        }
      ],
      "name": "confirmDelivery",
      "outputs": [],
      "stateMutability": "nonpayable",
      "type": "function"
    },
    {
      "inputs": [],
      "name": "productCount",
      "outputs": [
        {
          "internalType": "uint256",
          "name": "",
          "type": "uint256"
        }
      ],
      "stateMutability": "view",
      "type": "function"
    },
    {
      "inputs": [
        {
          "internalType": "uint256",
          "name": "",
          "type": "uint256"
        }
      ],
      "name": "products",
      "outputs": [
        {
          "internalType": "uint256",
          "name": "id",
          "type": "uint256"
        },
        {
          "internalType": "string",
          "name": "name",
          "type": "string"
        },
        {
          "internalType": "uint256",
          "name": "price",
          "type": "uint256"
        },
        {
          "internalType": "address payable",
          "name": "seller",
          "type": "address"
        },
        {
          "internalType": "address",
          "name": "buyer",
          "type": "address"
        },
        {
          "internalType": "bool",
          "name": "isSold",
          "type": "bool"
        },
        {
          "internalType": "bool",
          "name": "isDelivered",
          "type": "bool"
        }
      ],
      "stateMutability": "view",
      "type": "function"
    }
  ],
  "bytecode": "0x60806040525f8055348015610012575f80fd5b50611291806100205f395ff3fe608060405260043610610049575f3560e01c80637acc0b201461004d5780638642269e1461008f578063b15247d9146100ab578063e0f6ef87146100d3578063fd84cb97146100fd575b5f80fd5b348015610058575f80fd5b50610073600480360381019061006e919061081c565b610125565b6040516100869796959493929190610959565b60405180910390f35b6100a960048036038101906100a4919061081c565b610241565b005b3480156100b6575f80fd5b506100d160048036038101906100cc9190610af9565b610436565b005b3480156100de575f80fd5b506100e76105ff565b6040516100f49190610b53565b60405180910390f35b348015610108575f80fd5b50610123600480360381019061011e919061081c565b610604565b005b6001602052805f5260405f205f91509050805f01549080600101805461014a90610b99565b80601f016020809104026020016040519081016040528092919081815260200182805461017690610b99565b80156101c15780601f10610198576101008083540402835291602001916101c1565b820191905f5260205f20905b8154815290600101906020018083116101a457829003601f168201915b505050505090806002015490806003015f9054906101000a900473ffffffffffffffffffffffffffffffffffffffff1690806004015f9054906101000a900473ffffffffffffffffffffffffffffffffffffffff16908060040160149054906101000a900460ff16908060040160159054906101000a900460ff16905087565b5f60015f8381526020019081526020015f2090505f815f015411801561026b57505f54815f015411155b6102aa576040517f08c379a00000000000000000000000000000000000000000000000000000000081526004016102a190610c13565b60405180910390fd5b806002015434146102f0576040517f08c379a00000000000000000000000000000000000000000000000000000000081526004016102e790610ca1565b60405180910390fd5b8060040160149054906101000a900460ff1615610342576040517f08c379a000000000000000000000000000000000000000000000000000000000815260040161033990610d09565b60405180910390fd5b806003015f9054906101000a900473ffffffffffffffffffffffffffffffffffffffff1673ffffffffffffffffffffffffffffffffffffffff163373ffffffffffffffffffffffffffffffffffffffff16036103d3576040517f08c379a00000000000000000000000000000000000000000000000000000000081526004016103ca90610d97565b60405180910390fd5b60018160040160146101000a81548160ff02191690831515021790555033816004015f6101000a81548173ffffffffffffffffffffffffffffffffffffffff021916908373ffffffffffffffffffffffffffffffffffffffff1602179055505050565b5f8111610478576040517f08c379a000000000000000000000000000000000000000000000000000000000815260040161046f90610dff565b60405180910390fd5b5f8081548092919061048990610e4a565b91905055506040518060e001604052805f5481526020018381526020018281526020013373ffffffffffffffffffffffffffffffffffffffff1681526020015f73ffffffffffffffffffffffffffffffffffffffff1681526020015f151581526020015f151581525060015f805481526020019081526020015f205f820151815f01556020820151816001019081610521919061102e565b50604082015181600201556060820151816003015f6101000a81548173ffffffffffffffffffffffffffffffffffffffff021916908373ffffffffffffffffffffffffffffffffffffffff1602179055506080820151816004015f6101000a81548173ffffffffffffffffffffffffffffffffffffffff021916908373ffffffffffffffffffffffffffffffffffffffff16021790555060a08201518160040160146101000a81548160ff02191690831515021790555060c08201518160040160156101000a81548160ff0219169083151502179055509050505050565b5f5481565b5f60015f8381526020019081526020015f2090508060040160149054906101000a900460ff16610669576040517f08c379a000000000000000000000000000000000000000000000000000000000815260040161066090611147565b60405180910390fd5b8060040160159054906101000a900460ff16156106bb576040517f08c379a00000000000000000000000000000000000000000000000000000000081526004016106b2906111af565b60405180910390fd5b806004015f9054906101000a900473ffffffffffffffffffffffffffffffffffffffff1673ffffffffffffffffffffffffffffffffffffffff163373ffffffffffffffffffffffffffffffffffffffff161461074c576040517f08c379a00000000000000000000000000000000000000000000000000000000081526004016107439061123d565b60405180910390fd5b60018160040160156101000a81548160ff021916908315150217905550806003015f9054906101000a900473ffffffffffffffffffffffffffffffffffffffff1673ffffffffffffffffffffffffffffffffffffffff166108fc826002015490811502906040515f60405180830381858888f193505050501580156107d3573d5f803e3d5ffd5b505050565b5f604051905090565b5f80fd5b5f80fd5b5f819050919050565b6107fb816107e9565b8114610805575f80fd5b50565b5f81359050610816816107f2565b92915050565b5f60208284031215610831576108306107e1565b5b5f61083e84828501610808565b91505092915050565b610850816107e9565b82525050565b5f81519050919050565b5f82825260208201905092915050565b5f5b8381101561088d578082015181840152602081019050610872565b5f8484015250505050565b5f601f19601f8301169050919050565b5f6108b282610856565b6108bc8185610860565b93506108cc818560208601610870565b6108d581610898565b840191505092915050565b5f73ffffffffffffffffffffffffffffffffffffffff82169050919050565b5f610909826108e0565b9050919050565b610919816108ff565b82525050565b5f610929826108e0565b9050919050565b6109398161091f565b82525050565b5f8115159050919050565b6109538161093f565b82525050565b5f60e08201905061096c5f83018a610847565b818103602083015261097e81896108a8565b905061098d6040830188610847565b61099a6060830187610910565b6109a76080830186610930565b6109b460a083018561094a565b6109c160c083018461094a565b98975050505050505050565b5f80fd5b5f80fd5b7f4e487b71000000000000000000000000000000000000000000000000000000005f52604160045260245ffd5b610a0b82610898565b810181811067ffffffffffffffff82111715610a2a57610a296109d5565b5b80604052505050565b5f610a3c6107d8565b9050610a488282610a02565b919050565b5f67ffffffffffffffff821115610a6757610a666109d5565b5b610a7082610898565b9050602081019050919050565b828183375f83830152505050565b5f610a9d610a9884610a4d565b610a33565b905082815260208101848484011115610ab957610ab86109d1565b5b610ac4848285610a7d565b509392505050565b5f82601f830112610ae057610adf6109cd565b5b8135610af0848260208601610a8b565b91505092915050565b5f8060408385031215610b0f57610b0e6107e1565b5b5f83013567ffffffffffffffff811115610b2c57610b2b6107e5565b5b610b3885828601610acc565b9250506020610b4985828601610808565b9150509250929050565b5f602082019050610b665f830184610847565b92915050565b7f4e487b71000000000000000000000000000000000000000000000000000000005f52602260045260245ffd5b5f6002820490506001821680610bb057607f821691505b602082108103610bc357610bc2610b6c565b5b50919050565b7f50726f6475637420646f6573206e6f74206578697374000000000000000000005f82015250565b5f610bfd601683610860565b9150610c0882610bc9565b602082019050919050565b5f6020820190508181035f830152610c2a81610bf1565b9050919050565b7f596f75206d7573742073656e642074686520657861637420707269636520696e5f8201527f20424e4200000000000000000000000000000000000000000000000000000000602082015250565b5f610c8b602483610860565b9150610c9682610c31565b604082019050919050565b5f6020820190508181035f830152610cb881610c7f565b9050919050565b7f50726f6475637420697320616c726561647920736f6c640000000000000000005f82015250565b5f610cf3601783610860565b9150610cfe82610cbf565b602082019050919050565b5f6020820190508181035f830152610d2081610ce7565b9050919050565b7f53656c6c65722063616e6e6f7420627579207468656972206f776e2070726f645f8201527f7563740000000000000000000000000000000000000000000000000000000000602082015250565b5f610d81602383610860565b9150610d8c82610d27565b604082019050919050565b5f6020820190508181035f830152610dae81610d75565b9050919050565b7f5072696365206d7573742062652067726561746572207468616e207a65726f005f82015250565b5f610de9601f83610860565b9150610df482610db5565b602082019050919050565b5f6020820190508181035f830152610e1681610ddd565b9050919050565b7f4e487b71000000000000000000000000000000000000000000000000000000005f52601160045260245ffd5b5f610e54826107e9565b91507fffffffffffffffffffffffffffffffffffffffffffffffffffffffffffffffff8203610e8657610e85610e1d565b5b600182019050919050565b5f819050815f5260205f209050919050565b5f6020601f8301049050919050565b5f82821b905092915050565b5f60088302610eed7fffffffffffffffffffffffffffffffffffffffffffffffffffffffffffffffff82610eb2565b610ef78683610eb2565b95508019841693508086168417925050509392505050565b5f819050919050565b5f610f32610f2d610f28846107e9565b610f0f565b6107e9565b9050919050565b5f819050919050565b610f4b83610f18565b610f5f610f5782610f39565b848454610ebe565b825550505050565b5f90565b610f73610f67565b610f7e818484610f42565b505050565b5b81811015610fa157610f965f82610f6b565b600181019050610f84565b5050565b601f821115610fe657610fb781610e91565b610fc084610ea3565b81016020851015610fcf578190505b610fe3610fdb85610ea3565b830182610f83565b50505b505050565b5f82821c905092915050565b5f6110065f1984600802610feb565b1980831691505092915050565b5f61101e8383610ff7565b9150826002028217905092915050565b61103782610856565b67ffffffffffffffff8111156110505761104f6109d5565b5b61105a8254610b99565b611065828285610fa5565b5f60209050601f831160018114611096575f8415611084578287015190505b61108e8582611013565b8655506110f5565b601f1984166110a486610e91565b5f5b828110156110cb578489015182556001820191506020850194506020810190506110a6565b868310156110e857848901516110e4601f891682610ff7565b8355505b6001600288020188555050505b505050505050565b7f50726f64756374206d75737420626520736f6c642066697273740000000000005f82015250565b5f611131601a83610860565b915061113c826110fd565b602082019050919050565b5f6020820190508181035f83015261115e81611125565b9050919050565b7f50726f6475637420616c72656164792064656c697665726564000000000000005f82015250565b5f611199601983610860565b91506111a482611165565b602082019050919050565b5f6020820190508181035f8301526111c68161118d565b9050919050565b7f4f6e6c79207468652062757965722063616e20636f6e6669726d2064656c69765f8201527f6572790000000000000000000000000000000000000000000000000000000000602082015250565b5f611227602383610860565b9150611232826111cd565b604082019050919050565b5f6020820190508181035f8301526112548161121b565b905091905056fea26469706673582212200588a5055c92d53e761cdfc9dda14a116cc2cdc95b5a80d688a89b9455b621d064736f6c63430008180033",
  "linkReferences": {},
  "deployedLinkReferences": {},
  "immutableReferences": {},
  "inputSourceName": "project/contracts/Cryptocart.sol",
  "buildInfoId": "solc-0_8_24-46d4f0d6b6ff3a03c4924d7ce2519867ef90c2c1"
}